:020000040800F2
:10000000804E002001010008E12200088D20000838
:10001000DD220008F90600080D2600080000000097
:10002000000000000000000000000000E9220008BD
:10003000FD06000800000000E5220008ED2200088F
:100040001B0100081B0100081B0100081B01000820
:100050001B0100081B0100081B0100081B01000810
:100060001B0100081B0100081B0100081B01000800
:100070001B0100081B0100081B0100081B010008F0
:100080001B0100081B0100081B0100081B010008E0
:100090001B0100081B0100081B0100081B010008D0
:1000A0001B010008112300081B0100081B010008A8
:1000B0001B0100081D2300081B0100081B0100088C
:1000C0001B0100081B0100081B0100081B010008A0
:1000D0001B010008012600081B0100081B01000885
:1000E0001B0100081B0100081B010008DFF80CD0F1
:1000F00000F064FA00480047CD3A0008804E002026
:100100000648804706480047FEE7FEE7FEE7FEE7B1
:10011000FEE7FEE7FEE7FEE7FEE7FEE70D23000849
:10012000ED0000082DE9F05F0546002092469B4651
:1001300088460646814640241BE0284641464746FD
:10014000224600F095F953465A46C01A914110D301
:1001500011461846224600F07CF92D1A67EB01087B
:100160004F4622460120002100F073F917EB0009E9
:100170004E41201EA4F10104DFDC484631462A46E8
:100180004346BDE8F09F00000649074A086850430F
:1001900043F2390210440860400870470149086082
:1001A00070470000000000206D4EC64140EA010388
:1001B0009B0703D009E008C9121F08C0042AFAD21D
:1001C00003E011F8013B00F8013B521EF9D27047E1
:1001D000D2B201E000F8012B491EFBD27047002289
:1001E000F6E710B513460A4604461946FFF7F0FF36
:1001F000204610BDCAB2401E10F8011F8A4202D02C
:100200000029F9D10020704770B5064603F07EFE44
:10021000046805460A220021304600F039F92C60B6
:1002200070BD2DE9FE4F81EA030404F0004421F083
:10023000004100944FF0000B23F0004350EA01040A
:100240005ED052EA03045BD0C3F30A54C1F30A55EB
:100250002C44A4F2F3340194A0FB0254C1F3130123
:1002600041F48011C3F3130343F4801301FB0244F0
:1002700000FB034E840A970A44EA815447EA8357F5
:10028000A4FB076802958D0A05FB07854FEA932CAE
:1002900004FB0C542705029D4FEA065847EA16371F
:1002A000B5EB08056EEB070C870E920E47EA811737
:1002B00042EA8312A7FB0201B6EB0B0164EB0004D8
:1002C0002B0D43EA0C335E1844EB1C50DA465146C2
:1002D000E7FB0201C5F313044FEA0B3343EA14535F
:1002E0004FEA0432019C43EA0603A4F10C04029491
:1002F000009CCDE900B400F012F903B0BDE8F08F26
:1003000000200146F9E72DE9F04D81EA030404F0ED
:10031000004B21F0004514464FF0000A23F0004145
:1003200050EA050220D054EA01021DD0C5F30A5755
:100330000246C5F31303C1F31300C1F30A5640F498
:10034000801543F48013A7EB0608101BD64608F26D
:10035000FD3873EB050002D308F1010801E09218A3
:100360005B41B8F1000F03DA00200146BDE8F08DD3
:1003700000204FF48011064684460EE0171B73EBF5
:10038000050705D3121B63EB050306434CEA010C7A
:1003900049084FEA300092185B4150EA0107EDD15D
:1003A00052EA030012D082EA040083EA05010843FE
:1003B00005D0101BAB4106D20122002306E000222B
:1003C0004FF0004302E06FF0010253101AEB0600F9
:1003D0004CEB085110EB0A0041EB0B01BDE8F04D6E
:1003E00000F08EB80EB5C10F80EAE0700844CA076D
:1003F000002140F233438DE80E000A460B4600F020
:100400008EF803B000BD0EB540F2334102910021D9
:10041000CDE900110A460B4600F081F803B000BD9B
:10042000C1F30A5210B5C1F3130140F2FF3341F496
:1004300080119A4201DA002010BD40F233439A4203
:10044000A2F2334203DC524200F012F810BD904099
:1004500010BD202A04DB203A00FA02F10020704788
:100460009140C2F1200320FA03F3194390407047F2
:10047000202A04DB203A21FA02F00021704721FAF9
:1004800002F3D040C2F12002914008431946704760
:100490002DE9F04791460F4680460446002614F8A1
:1004A000015B2DB100F09CF80068405DC007F6D1FB
:1004B0002B2D02D02D2D18D0641E4A4639462046D9
:1004C00000F092F827B13968A14201D1C7F8008045
:1004D00071054FF002040BD54042002803DD03F004
:1004E00015FD0460A007BDE8F08746F48066E4E7E8
:1004F0000028F8DA03F00AFD04606FF00040F2E72C
:1005000010B5141E73F1000408DA401C41F100011B
:1005100092185B411A4301D120F0010010BD2DE972
:10052000F04D92469B4611B1B1FA81F202E0B0FA69
:1005300080F220329046FFF78CFF04460F4640EAD7
:100540000A0041EA0B0153465A46084313D01146AC
:1005500053EA010019D0C8F140025046FFF788FF66
:1005600005460E46504659464246FFF772FF08437D
:1005700005D0012004E020463946BDE8F08D00207A
:10058000054346EAE0762C4337430A986305E40ABC
:10059000A0EB08000022FD0A44EA47540A3002D5C5
:1005A00000200146E9E7010510196941DDE9084528
:1005B00000196941BDE8F04DA2E70000064C074D67
:1005C00006E0E06840F0010394E807009847103423
:1005D000AC42F6D3FFF78EFD084000082840000823
:1005E00000487047B43F00082DE9F05F824600786C
:1005F000002715468B460AF10104B946302801D080
:100600009DB113E014F8010B0127782803D0582876
:1006100001D045B10AE00DB1102D07D100271025FA
:1006200014F8010B02E0082500E00A250026B04678
:100630000EE005FB080005FB06F1012701EB104663
:100640001FFA80F8B6F5803F00D3B94614F8010BC5
:10065000294600F018F80028EBDABBF1000F05D0AE
:100660000FB1641E00E05446CBF80040B9F1000F12
:1006700006D003F04BFC02210160C81EBDE8F09FCC
:1006800048EA0640FAE73A2800D2303820F0200243
:10069000412A01D3A2F13700884201D34FF0FF3045
:1006A000704770B58C1810F8015B15F0070301D185
:1006B00010F8013B2A1106D110F8012B03E010F8C5
:1006C000016B01F8016B5B1EF9D12B0705D40023E8
:1006D000521E0DD401F8013BFAE710F8013BCB1A8A
:1006E000921C03E013F8015B01F8015B521EF9D57F
:1006F000A142D8D3002070BDFEE700007047000083
:10070000014690F82100022816D10868D1E90FC3EC
:10071000026822F00E020260026822F0010202600A
:10072000012000FA03F2CCF8042081F82100002017
:10073000002281F8202070470420886301200022D5
:1007400081F820207047000080B590F82110022920
:1007500024D10268116821F00E0111602F21136865
:10076000C4F202018A4240F20401C4F2020123F001
:100770000103136016DD3023C4F202039A421DD038
:100780004423C4F202039A421CD05823C4F2020349
:100790009A421DD14FF4803322E000BF04218163CF
:1007A000012080BD0823C4F202039A420ED01C230C
:1007B000C4F202039A420BD1102311E04FF480736C
:1007C0000EE000BF4FF480530AE000BF012307E0B2
:1007D00001F1680C4FF08073624508BF4FF480133D
:1007E0000B60416B4FF48072028401B18847002096
:1007F00080BD0000B0B5044600F01AF9054640F28D
:100800000800C2F200000078611C18BF044400BF59
:1008100000F00EF9401BA042FAD3B0BD2DE9F04F15
:1008200082B041F20042C4F201020E6804239042F9
:1008300008BF0323002E009300F0F68040F20C4E18
:100840004FF6FF7CC4F2010E00220124C1F2100C0D
:100850004FF0000A4FF0000943E000BF012502F00D
:100860000C040F27A7402BEA070705FA04F43C43C2
:1008700043F82640D1F804B040F20045C4F2010527
:100880005FEACB332B6854BF23EA080343EA08032B
:100890002B606B685FEA8B3454BF23EA080343EA9A
:1008A00008036B605FEACB24AB6854BF23EA0803FC
:1008B00043EA08035FEA8B24AB60DEF800304FF0B8
:1008C000010454BF23EA080343EA0803CEF80030CA
:1008D0000E680AF1010A36FA0AF302F1040200F086
:1008E000A38004FA0AF816EA080FF1D04B686345B2
:1008F00012DC122B56D8DFE803F0350B454955556D
:1009000055555555555555555555554D510000BFE3
:10091000D1F80C9046E000BF4FF6FF77C1F22107F7
:10092000BB420FDC0027C1F21107BB421AD00027DF
:10093000C1F21207BB4215D00027C1F22107BB420A
:1009400010D02FE00027C1F22207BB420AD00027B7
:10095000C1F23107BB4205D00027C1F23207BB42CA
:1009600020D100BF8B684BB1012B14BFC0F814809D
:10097000C0F810804FF0080914E000BF4FF00409E0
:1009800010E000BFCB6803F108090BE04FF000094D
:1009900008E000BFCB6803F1040903E0CB6803F172
:1009A0000C0900BF13460546BAF1080F24BF203BCF
:1009B00004352E680F279F40BE4309FA03F33343E3
:1009C0002B60CB79DB067FF583AF41F21804C4F2CC
:1009D000020423684FEA9A0643F001032360236868
:1009E00040F6000403F001030193019B40F2004331
:1009F000C4F20103A3F57E7353F826B0C4F20104D8
:100A0000A0420FD040F60044C4F20104A0423FF4DB
:100A100025AF41F20004C4F20104009DA04208BFCA
:100A200002251CE700251AE702B0BDE8F08F0000A0
:100A300044F67820C2F200000068704740F20800D7
:100A400044F67821C2F20000C2F2000100780A6880
:100A5000104408607047000080B542F20000C4F204
:100A60000200016841F010010160032000F08AF8E3
:100A7000002000F005F800F027F8002080BD0000FD
:100A800070B540F20806C2F2000640F2EC0132787E
:100A9000C2F200014FF47A730968B3FBF2F2044624
:100AA000B1FBF2F1084600F0E5FB0F2C4FF0010519
:100AB00008D838B94FF0FF3021460022002500F059
:100AC00035F87460284670BD82B041F21800C4F257
:100AD00002000168022241F001010160016801F099
:100AE000010101910199416841F0805141604068E4
:100AF00000F08050009000980420C4F201000168CA
:100B000062F31A61016002B070470000002848BF1C
:100B1000704700F01F01012202FA01F14EF20012AB
:100B20004009CEF2000242F82010704710B54EF690
:100B30000C5CCEF2000CDCF80030C3F3022E8EF019
:100B40000704042C28BF0424BEF103034FF0FF3E2A
:100B50000EFA04F438BF0023A14399400EFA03F3C0
:100B60009A43114300F00F02043A624409010C3227
:100B700000F16043B0F1FF3FC8BF03F5644211705C
:100B800010BD00004EF60C51CEF200010A684FF67F
:100B9000FF031A4060F30A2242F0806040F0FD70CB
:100BA000086070472DE9F04182B00446007841F2B8
:100BB0001C06C007C4F202064AD0306810F0805804
:100BC00008D1306840F080503060306800F08050CC
:100BD0000190019847F20007C4F200073868C00589
:100BE00012D4386840F480703860FFF721FF054662
:100BF0003868C00508D4FFF71BFF401B6428F7D9ED
:100C0000032002B0BDE8F081706810F4407012D08B
:100C1000616801F4407188420DD0706840F2404232
:100C2000C4F24222012320F4407113600023C00764
:100C3000136071602AD17068616820F440700843C5
:100C4000B8F1000F706003D1306820F08050306040
:100C50002068810707D556F8181CA26821F4404186
:100C6000114346F8181CC00604D4002002B0BDE8A9
:100C7000F08100BF56F8180CE16820F480000843AA
:100C800046F8180C002002B0BDE8F081FFF7D0FE56
:100C9000054641F2883700BF70688007CBD4FFF764
:100CA000C7FE401BB8424FF00300F5D9EBE7000048
:100CB0002DE9F04381B0002800F0858042F2000861
:100CC000C4F202080446D8F800000D4600F0070000
:100CD00088420CD2D8F8000020F007002843C8F85A
:100CE0000000D8F8000000F00700A8426BD120688F
:100CF00041F204098107C4F2020917D5410705D55D
:100D0000D9F8001041F4E061C9F80010010705D5D9
:100D1000D9F8001041F46051C9F80010D9F800105A
:100D2000A26821F0F0011143C9F80010C00741D1B9
:100D3000D8F8000000F00700A8420CD9D8F800004D
:100D400020F007002843C8F80000D8F8000000F0A1
:100D50000700A84237D12068410707D5D9F800100D
:100D6000E26821F4E0611143C9F80010000708D5DA
:100D7000D9F80000216920F4605040EAC100C9F8A8
:100D80000000D9F8002002F00C00082841F20020F1
:100D9000C0F27A0050D143F6F873C2F38341C0F633
:100DA0000003595CD2033BD440F60010C0F23D0072
:100DB000484341E0606802280AD001282AD159F846
:100DC000041C890308D4012001B0BDE8F08300BFF2
:100DD00059F8041C8901F6D5D9F8001021F0030157
:100DE0000843C9F80000FFF723FE064641F28837A2
:100DF000D9F80000616800F00C00B0EB810F97D0CB
:100E0000FFF716FE801BB842F2D9032001B0BDE8FF
:100E1000F08300BF59F8041C8907D4D5DCE700BF74
:100E2000D9F8002043F6B873C2F34042C0F600037D
:100E30009A5C4843B0FBF2F0D9F8001043F6BA725E
:100E4000C1F30311C0F60002515C40F2EC0220FA3B
:100E500001F140F20C00C2F200000068C2F2000290
:100E60001160FFF70DFE002001B0BDE8F083000027
:100E700040F2EC0041F20401C2F20000C4F20201AF
:100E80000068096843F6CA72C1F30221C0F6000285
:100E9000515CC8407047000040F2EC0041F2040190
:100EA000C2F20000C4F202010068096843F6CA7287
:100EB000C1F3C221C0F60002515CC8407047000077
:100EC0002DE9F04182B0002868D00446007841F254
:100ED0000006C007C4F2020625D0706800F00C00BE
:100EE00004281BD0706800F00C00082802D170683C
:100EF000C00313D46068002800F06881B0F5A02F0B
:100F000000F07C81B0F5803F00F07C81306820F4F7
:100F100080303060306820F4802076E130688003D3
:100F200001D56068D0B32078800718D5706810F0BC
:100F30000C0F07D0706800F00C0008286ED17068A4
:100F4000C0036BD43068800702D52069012825D101
:100F50003068616920F0F80040EAC1003060207814
:100F600000071FD42078400732D4E56995B1706836
:100F700000F00C00082840F08F80012D0ED0706822
:100F8000216A00F480328A4208D1616A00F470104C
:100F9000884203D1002002B0BDE8F081012002B0F8
:100FA000BDE8F081A069002862D00020C4F2422090
:100FB0000121C0F88014FFF73BFD0546706A8007E9
:100FC00000F18C80FFF734FD401B0228F6D92AE19E
:100FD000F06910F0805808D1F06940F08050F0615D
:100FE000F06900F080500090009847F20007C4F2CA
:100FF00000073868C00529D4386840F4807038602C
:10100000FFF716FD054600BF3868C0051ED4FFF780
:101010000FFD401B6428F7D905E100BF20690028B7
:1010200040F20000C4F2422000F082800121016001
:10103000FFF7FEFC054600BF306880073FF588AF2C
:10104000FFF7F6FC401B0228F6D9ECE0E068002828
:1010500000F08080052800F09780012800F098803B
:10106000306A20F001003062306A20F0040092E023
:101070000020C4F242200021C0F88014FFF7D8FC01
:10108000054600BF706A80077FF56CAFFFF7D0FCA4
:10109000401B0228F6D9C6E00027C4F242270020F0
:1010A0003866FFF7C5FC022D05460BD1306880017C
:1010B00040F1BE80FFF7BCFC401B02284FF003004C
:1010C000F4D968E7306880017FF564AFFFF7B0FCC2
:1010D000401B02284FF00300F4D95CE740F2EC001B
:1010E000C2F20000006844F6D351C1F26201A0FBD5
:1010F0000101480A019000BF00BF0198411E00286D
:1011000001913FF42FAF00BF0198411E00280191CB
:101110003FF428AF00BF0198411E002801913FF421
:1011200021AF00BF0198411E00280191E4D119E7C9
:1011300000210160FFF77CFC054600BF3068800796
:101140007FF50DAFFFF774FC401B02284FF0030042
:10115000F4D920E7306A20F001003062306A20F0D4
:1011600004003062FFF764FC054641F2883700BF97
:10117000306A800720D5FFF75BFC401BB8424FF078
:101180000300F5D907E700BF306A40F00400306281
:10119000306A40F001003062FFF74AFC054641F238
:1011A000883700BF306A800706D4FFF741FC401B38
:1011B000B842F7D937E000BFB8F1000F7FF4D5AEE1
:1011C000F06920F08050F061CFE600BF306820F475
:1011D00080303060306820F480203060FFF728FCD9
:1011E000054600BF306880037FF59DAEFFF720FC09
:1011F000401B64284FF00300F4D9CCE6306840F47B
:1012000080203060306840F480303060FFF710FCA0
:10121000054600BF306880033FF585AEFFF708FC48
:10122000401B6428F6D9032002B0BDE8F08100BF5E
:10123000206AB0F5803F05D17168A26821F40031C1
:10124000114371607168626A21F47411104308439C
:10125000706001203866FFF7EBFB044630688001C0
:101260003FF598AEFFF7E4FB001B02284FF00300A8
:10127000F4D990E6411E0020B0EB116F1CBF012095
:1012800070474EF21002CEF2000251604EF623512A
:10129000CEF20001F0230B700721906011607047BF
:1012A000704700007047000010B590F83C20012AFC
:1012B0004FF0020233D080F83D200268D2F804E0FB
:1012C000D2F808C00C682EF07003234340F2FF747C
:1012D000C4F20004A24253600ADCB2F1804F13D082
:1012E00040F20043C4F200039A420DD011E000BF67
:1012F00042F60043C4F201039A4205D040F60003CF
:10130000C4F200039A4204D149682CF080031943C7
:1013100091600121002280F83D1080F83C201046A9
:1013200010BD0000002804BF0120704710B504461E
:1013300090F83D0028B9002084F83C00204600F0D9
:1013400067F8022084F83D00206840F2FF730268CD
:10135000C4F2000342F6004C9842C4F2010C15DCC2
:10136000B0F1804F1AD040F20041C4F2000188422F
:1013700014D0984218DCB0F1804F1DD040F20041EB
:10138000C4F20001884217D01AE000BF604505D0C2
:1013900040F60001C4F200018842EAD1A16822F0BF
:1013A00070020A439842E6DD604505D040F6000130
:1013B000C4F20001884203D1216922F440720A4339
:1013C000A36922F08001D4F804E0E2681943604583
:1013D0000160C262C0F828E002D16169CCF8301027
:1013E00001214161002084F8461084F83E1084F801
:1013F0003F1084F8401084F8411084F8421084F8BB
:10140000431084F8441084F8451084F83D1010BD52
:1014100080B586B0006840F20042C4F200020021AC
:101420009042059138D040F60001C4F20001884294
:101430004AD042F60041C4F20101884251D141F242
:101440001800C4F20200016841F400610160016803
:1014500001F4006101910199016841F0040101600A
:10146000006802A900F00400019001984FF4807018
:1014700002900020CDE9030040F60000C4F2010014
:10148000FFF7CCF9192007210022FFF74FFB1920A5
:10149000FFF73CFB06B080BD41F21800C4F2020029
:1014A0004168002241F00201416040680F2100F0D4
:1014B0000200019001981D20FFF738FB1D2006B0A7
:1014C000BDE88040FFF722BB41F21800C4F20200E1
:1014D000416841F004014160406800F0040001905F
:1014E000019806B080BD000090F83D1001291CBF96
:1014F00001207047022180F83D10006840F2FF7221
:10150000C168C4F20002904241F00101C16009DCEF
:10151000B0F1804F12D040F20041C4F20001884285
:101520000CD012E042F60041C4F20101884205D01D
:1015300040F60001C4F20001884206D1816801F042
:101540000701062904BF00207047016841F001012E
:1015500001600020704700000146006841F211134D
:10156000C26822F00102C260026A1A4204D001225B
:10157000002081F83D207047026A40F244431A423D
:10158000F5D1026822F0010202600122002081F8F8
:101590003D20704780B590F83C20012A4FF00202B0
:1015A00000F0BF8080F83D20D0F800C04FF6777281
:1015B000DCF8083023EA0202CCF808200B683F2B45
:1015C0001CDD5F2B20DD602B50D0B3F5005F6DD0AC
:1015D000702B40F0A080D1E901E3C968DCF8082055
:1015E00043EA0E0322F47F4243EA01211143CCF87F
:1015F0000810DCF8081041F077018AE01F2B29DC85
:1016000063B3102B2AD086E0402B63D0502B40F0E0
:101610008280D1F804E0C968DCF82030DCF82020B2
:1016200022F00102CCF82020DCF8182022F0F00291
:1016300042EA011123F00A0242EA0E02CCF8181025
:10164000CCF82020DCF8081041F0570121F02001EF
:101650005FE000BF202B01D0302B5CD1DCF80810FC
:1016600021F07001194341F0070152E0D1F804E084
:10167000C968DCF8203023F01003CCF82030DCF807
:101680001830DCF8202023F4704322F0A00243EA53
:10169000013142EA0E12CCF81810CCF82020DCF808
:1016A000081041F0670121F0100132E0D1E901E3B7
:1016B000C968DCF8082043EA0E0322F47F4243EABB
:1016C00001211143CCF80810DCF8081041F48041E6
:1016D0001FE000BFD1F804E0C968DCF82030DCF876
:1016E000202022F00102CCF82020DCF8182022F083
:1016F000F00242EA011123F00A0242EA0E02CCF89B
:101700001810CCF82020DCF8081041F0470121F037
:101710003001CCF808100121002280F83D1080F83B
:101720003C20104680BD000070470000F0B590F8E6
:101730003C30012B04BF0220F0BD082A20D0042A2F
:101740003CD0002A5AD10368D1E900C5D1F80CE099
:101750001A6A40F2FF7722F001021A621A4652F822
:10176000186F1C6AC4F20007BB426BDCB3F1804FF8
:1017700074D040F20047C4F20007BB426ED087E04D
:101780000768D1E900C5D1E902313A6A61F307156A
:1017900022F480723A623A4652F81C4F3E6A24F0B4
:1017A000F30445EA0401CCF3560565F349261160BC
:1017B0003E62116821F00C01116060E00368D1E91C
:1017C00000E6D1E902C11A6A360222F010021A625A
:1017D0001A4652F8184F4FF2FF071D6ABE4324F411
:1017E000734461F30F3646EA040125F0A0040EF0BD
:1017F0000A0744EA071711601F621CE00368D1E979
:1018000000E6D1E902C11A6A360222F480521A6255
:101810001A4652F81C4F4FF2FF071D6ABE4324F4CC
:10182000734461F30F36CEF3520746EA040167F3BF
:101830004D3511601D6211684FEA0C2321F440619F
:1018400011601CE042F60047C4F20107BB4205D01C
:1018500040F60007C4F20007BB4219D126F0030688
:10186000354324F00A070CF00A066EF307153744D7
:101870009D611F629F6927F00C079F618B6811684B
:1018800019431160002180F83C100846F0BD00BFEC
:1018900046F00105E5E70000002804BF012070477D
:1018A00010B5044690F83D0028B9002084F83C00AB
:1018B000204600F067F8022084F83D00206840F2DE
:1018C000FF730268C4F2000342F6004C9842C4F26F
:1018D000010C15DCB0F1804F1AD040F20041C4F287
:1018E0000001884214D0984218DCB0F1804F1DD01E
:1018F00040F20041C4F20001884217D01AE000BF54
:10190000604505D040F60001C4F200018842EAD1EA
:10191000A16822F070020A439842E6DD604505D0D6
:1019200040F60001C4F20001884203D1216922F48B
:1019300040720A43A36922F08001D4F804E0E2680F
:10194000194360450160C262C0F828E002D16169B4
:10195000CCF8301001214161002084F8461084F851
:101960003E1084F83F1084F8401084F8411084F849
:10197000421084F8431084F8441084F8451084F829
:101980003D1010BD7047000010B50168044608699D
:10199000800744BFC8685FEA807039D4086940078F
:1019A00044BFC8685FEA40703ED40869000744BF7E
:1019B000C8685FEA007045D40869C00644BFC868BB
:1019C0005FEAC0604AD40869C0071CBFC8685FEA04
:1019D000C07051D10869000644BFC8685FEA006062
:1019E00052D40869400644BFC8685FEA406053D4D7
:1019F0000869800646BFC8685FEA806010BD6FF066
:101A0000200220460A61BDE81040FFF74BBC00BF32
:101A10006FF002000861012020778869800743D0B9
:101A20002046FFF781FE45E06FF0040008610220C8
:101A30002077886910F4407F40D02046FFF774FE7D
:101A400042E000BF6FF00800086104202077C869F9
:101A500080073DD02046FFF767FE3FE06FF01000A3
:101A6000086108202077C86910F4407F3AD02046EA
:101A7000FFF75AFE3CE000BF6FF00100086120460E
:101A800000F03EF82168A5E76FF08000086120466D
:101A9000FFF706FC2168A4E76FF0400008612046CC
:101AA00000F030F82168A3E7204600F025F8204632
:101AB00000F024F82168002020776FE7204600F02E
:101AC0001BF8204600F01AF82168002020776CE708
:101AD000204600F011F8204600F010F821680020A0
:101AE000207769E7204600F007F8204600F006F866
:101AF00021680020207766E77047000070470000EB
:101B000070470000704700007047000070470000F9
:101B1000B0B582B0026805461068D368546900F019
:101B20002F01202903F0200106D129B1284602B057
:101B3000BDE8B04000F008BD5FEA007C1EBF04F0C5
:101B4000010E03F4907414EB0E0455D1296B012996
:101B500005D110F0100118BF13F0100136D10106A5
:101B600022D513F080011FD095F83D00212841D1E6
:101B7000A868B0F5805F03D12869002800F0F680DE
:101B8000286A411C296200785060E88C0138010401
:101B9000E8842FD1D06820F08000D060D06840F079
:101BA0004000D06002B0B0BD400623D513F0400025
:101BB00020D0D068202120F04000D060284685F851
:101BC0003D1002B0BDE8B04000F05EBA00200190C8
:101BD000106801905068019001985069400613D434
:101BE000A88DE98DEB8D002B1CBF401A5FEA0041E8
:101BF00040F0A48002B0B0BDC40718BF13F48073D6
:101C00002CD1430730D436E0A86B01684B689CB2F6
:101C1000002CEFD0A98D8C42ECD2EB858369202B70
:101C200017D0D16821F48071D160516921F0010190
:101C30005161516921F040015161202185F83E1028
:101C400000212963D16821F01001D160FEF758FD11
:101C5000A98DE88D081A81B2284682E02B6C43F0EA
:101C600001032B64430706D5BEF1000F03D02B6C94
:101C700043F002032B64830706D5BEF1000F03D0A7
:101C80002B6C43F004032B64BCF1000F06D551EA22
:101C90000E0303D02B6C43F008032B642B6C002B3A
:101CA000A8D010F0200018BF002903D0284600F06B
:101CB0004BFC2A685069296C00F0400001F00801D3
:101CC00040182DD0D06820F49070D060506920F07A
:101CD00001005061286B012803D1D06820F010006A
:101CE000D060202085F83E0000202863506940061F
:101CF0001ED5506920F040005061A86BC0B142F27F
:101D00003D51C0F600014163FEF71EFD00283FF47F
:101D100071AFA86B416B02B0BDE8B040084700BF8F
:101D20002846FFF7F3FE0020286402B0B0BD00BFD4
:101D3000284602B0BDE8B040FFF7E8BED16821F404
:101D40009071D160516921F001015161202185F824
:101D50003E1000212963D16821F0100381B228468A
:101D6000D36002B0BDE8B040FFF7CEBE286A30F8BD
:101D7000021B6FF35F215160286206E7002804BF51
:101D80000120704710B5044690F83D0028B90020A6
:101D900084F83C00204600F05FF8242084F83D00E1
:101DA0002068D4E90212C36823F40053C3600369B6
:101DB00023F440531A430261D4E904231143C26857
:101DC000194341F20C639A431143C1604169A2690E
:101DD00021F44071114343F60002C4F20102904223
:101DE000416103D0FFF744F802E000BFFFF754F869
:101DF0006268192148439100B0FBF1F048F21F518D
:101E0000C5F2EB11A0FB01235A096FF0630302FB3B
:101E10000300322303EB0010A0FB0101F02303EACF
:101E20005113206803EB0212C1F343111144816086
:101E3000016921F490410161416921F02A01416168
:101E4000C16841F40051C16000202021206484F861
:101E50003D1084F83E1010BD70B586B0006844F2A5
:101E60000041C4F20001002688420596CDE90366D0
:101E700002963FD043F60001C4F20101884266D1C8
:101E800041F21800C4F20200016840F6000441F477
:101E9000804101600168C4F2010401F480410191B4
:101EA0000199016802AD41F0040101600068294612
:101EB00000F00400019001984FF40070029002209D
:101EC0000390032005902046FEF7A8FC4FF48060A5
:101ED00002900020CDE9030020462946FEF79EFC33
:101EE000252000210022FEF721FE2520FEF70EFE10
:101EF00006B070BD41F21800C4F20200416840F61D
:101F0000000441F4003141604168C4F2010401F46D
:101F1000003101910199016802AD41F004010160B5
:101F20000068294600F00400019001980420029006
:101F300002200390032005902046FEF76FFC082046
:101F4000CDE90206204629460496FEF767FC06B056
:101F500070BD0000034690F83E0020280AD10029F9
:101F60004FF0010018BF002A00D1704793F83C00E1
:101F7000012801D1022070470020186399622221B4
:101F80009A85DA85186483F83E10196883F83C0056
:101F9000CA6842F48072CA604A6942F001024A612A
:101FA000CA6842F02002CA6070470000B0B540F233
:101FB0004055C2F20005044605F13000844236D196
:101FC00044F2D050C2F20000FFF7C6FA44F21860A3
:101FD000C2F20000FFF7C0FA28780D2827D00A289F
:101FE00002D1A9780EE000BF6A8840F2FF33511C8D
:101FF0001FFA81FC9C4544F27863C2F200036980B9
:10200000985414D344F27860C9B2C2F2000001F0CF
:1020100053FF0020688044F2D050C2F20000FFF766
:1020200063FA44F21860C2F20000FFF75DFA40F272
:102030004051C2F2000120460122BDE8B040FFF746
:1020400089BF0000034690F83D0020280AD10029EE
:102050004FF0010018BF002A00D1704793F83C00F0
:10206000012801D1022070471962002021219A84A1
:10207000DA84186483F83D10196883F83C00CA6854
:1020800042F08002CA60704770470000FEE700001F
:102090002DE9F04F89B040F614410090C4F20101DF
:1020A00000224FF4006440254FF0100C08204FF43C
:1020B000807804E0019A0132052A00F00B810123A7
:1020C00003FA02FA202303FA02FB134604FA02FE83
:1020D000009A01939A40531E059302F00303049360
:1020E000931E0692033A0393029200230022089261
:1020F0000AE000BF089A4032089241F8044C079B5E
:1021000062B60133202BD5D0DA074FF480520CBFD2
:102110000A6041F8042C9A074FF4005254BF0A6039
:1021200041F8042C5A074FF4804254BF0A6041F82A
:10213000042C1A074FF4004254BF0A6041F8042CE3
:10214000DA0607934FF0800254BF0A6041F8042C6E
:10215000089B4FF0000900BF44F2CC52C2F20002CB
:1021600012689EB232F8164001271EEA040F0CBF17
:102170000F6041F8047C1BEA040F4FF002070CBF0C
:102180000F6041F8047C1AEA040F0CBF0D6041F89F
:10219000045C02EB46024FF48054125B20241EEADA
:1021A000020F0CBF0C6041F8044C1BEA020F0CBF7D
:1021B000C1F800C041F804CC1AEA020F0CBF086055
:1021C00041F8040CC1F8008000BF00BF41F8048C46
:1021D00000BF44F2CC5200BFC2F2000243F001043F
:1021E0001268A6B232F8164001271EEA040F0CBF8F
:1021F0000F6041F8047C1BEA040F4FF002070CBF8C
:102200000F6041F8047C1AEA040F0CBF0D6041F81E
:10221000045C02EB46024FF48054125B20241EEA59
:10222000020F0CBF0C6041F8044C1BEA020F0CBFFC
:10223000C1F800C041F804CC1AEA020F0CBF0860D4
:1022400041F8040CC1F8008000BF49F0010200BF52
:1022500041F8048C023300BF3F2A09F1020900BF94
:10226000FFF47AAF4FF48062C1F800800A6000BFCB
:1022700000BF41F8042C00BF4FF4006400BF0A60A7
:10228000EFF3108272B641F8044C069A0C60120407
:102290003FF430AF049A7AB100BF012A059A06D004
:1022A00000BF049A022A039A1CBF00BF029A059B32
:1022B0009BB2032B06D21DE7069A059B9BB2032B0C
:1022C000FFF418AF00BF00BF043A00BF130400BF03
:1022D000F8D10FE709B0BDE8F08F0000FEE700007D
:1022E000FEE70000704700007047000080B5FEF771
:1022F000A5FB44F26860C2F20000D0E9001201318F
:1023000042F10002C0E9001280BD000070470000E9
:1023100044F2D050C2F20000FFF736BB80B540F265
:102320004850C2F200000079FFF7B2FE44F2186094
:10233000C2F20000BDE88040FFF726BBF0B543F2D3
:10234000803E40F2B276002545F6294CC0F2E11EEF
:102350002C4606FB0CF5324606F00303AEB2B70876
:1023600047EA8537BFB236093F0946EA0535B3FA71
:1023700083F3282F4FF00007ADB24FEA531388BF05
:102380000127A42D4FF0000503EA070338BF0125FC
:102390002B4375461CBF48F20055C0F2E215254498
:1023A0008D4202F10106D3D90F1B44F20751CCF242
:1023B0002E21A7FB01164FEA164C4AF68066CFF68F
:1023C000FE760CFB06764BF2C535C9F2A215A6FBCC
:1023D000055448F68905C8F68805A6FB0551E50AA7
:1023E0004FF4616405FB14644571A5B248F6890495
:1023F00065436D0D85714D092D01A5EB5111A6EBBE
:1024000081014DF67F66C0F22806B7420280C17195
:1024100002D8012358E000BFACF11F0C1C26002B92
:1024200018BF1D26B44501D202234DE0ACEB060CCB
:10243000BCF11F0F02D2032346E000BFACF11F0620
:102440001E2E03D20423B4463EE000BFACF13D068D
:102450001F2E03D20523B44636E000BFACF15C0664
:102460001E2E03D20623B4462EE000BFACF17A063E
:102470001F2E03D20723B44626E000BFACF1990615
:102480001F2E03D20823B4461EE000BFACF1B806ED
:102490001E2E03D20923B44616E000BFACF1D606C7
:1024A0001F2E03D20A23B4460EE000BFACF1F5069E
:1024B0001E2E03D20B23B44606E000BFACF2131C61
:1024C000BCF11F0F36D20C230CF101018370C170D7
:1024D0005F1E022F3CBF013A0C33DFB207EB470708
:1024E000C9B203374CF6CD4692B27743960841F213
:1024F0007B4511446E43150940F63E2401EB9201E1
:102500006543A1EB564101EB154101EB430142F25A
:10251000934201EB9741C9F2492281FB02235A18E9
:10252000930803EBD272A2EBC20211440131017194
:10253000F0BD00BF8378C178CAE70000406A00217F
:10254000C185C184FFF7E2BA81B090F83E1022291C
:1025500020D18368B3F5805F08D10169002941D09B
:1025600000F128010A6803685B680AE0014651F837
:10257000282F13B90369002BF5D003685B6803F0BB
:102580007F0313700A6801320A60C18D01390A04A1
:10259000C18501D001B070470168CA6822F02002ED
:1025A000CA60CA6822F48072CA604A6922F00102D5
:1025B0004A61202280F83E20026B012A1CD10022B1
:1025C0000263CB6823F01003CB600B68DB0605D5F4
:1025D00000920A680092496800910099818D01B0CB
:1025E000FFF792BA0168826A49686FF35F2122F8A7
:1025F000021B8262C9E700BF01B0FFF7D7BC000031
:1026000040F27050C2F20000FFF782BAFEE700000D
:102610002DE9F04F83B006461C1F4FF0000017460F
:1026200098BF0446081BCA1A9B460D4681B293B256
:1026300030463246009701F0BFF860190BEB0502F7
:1026400081B293B230463246009701F0B5F8301BA4
:10265000A6EB0B0180B28AB229462B46009701F007
:10266000ABF8A0190BEB060180B28AB229462B46C3
:10267000009701F0A1F84FF47A7804FB08F0FDF719
:10268000C2FE40F20009C3F6E87900224B46FDF78E
:10269000C8FD44F2000AC4F28F0A00225346FDF737
:1026A00032FEFDF7BDFE04460BFB08F0FDF79AFE77
:1026B00000224B46FDF7B5FD00225346FDF723FEF1
:1026C000FDF7AEFE8046301BA6EB0802291BA5EBEA
:1026D00008031FFA80F91FFA82FB89B29BB24846B1
:1026E0005A46019102930097BA4601F065F8A01985
:1026F000611908EB060208EB05031FFA80F88DB29A
:1027000096B29FB24046294632463B46CDF800A0DD
:1027100001F052F8484629465A463B46CDF800A0FB
:1027200001F04AF80199029B40463246CDF800A0DC
:1027300001F042F803B0BDE8F08F0000B0B544F2FC
:10274000686144F27063C2F20001C2F2000391E8D2
:1027500002105A681B684FF47A7413EB010E037869
:10276000D0E90215B4FBF3F342EB0C02BEEB01011E
:1027700062EB0505C91A75F1000132BF0020C0E9FE
:1027800002E20120B0BD00002DE9F04F85B040F21B
:10279000B45BC2F2000B9BF801009BF80D104FF0E8
:1027A000010A40F2F0052AEA00004FF0CD09C2F21A
:1027B00000058BF8010001FB09F2D5E900014FF695
:1027C000E137D20A022400260223CDE9004702960F
:1027D000039400F005FC9BF80D20CDE9004702FBB7
:1027E00009F0C00A00EB8003D5E90001A2EB430227
:1027F000D2B20C230296039400F0F2FB9BF8012066
:10280000D5E90001002A18BF4FF6E132CDE90042B8
:102810000A2216230296039400F0E2FB9BF80E00B6
:102820001E2300FB09F2D5E90001D20ACDE90047D9
:102830000296039400F0D4FB9BF80E20CDE90047EC
:1028400002FB09F0C00A00EB8003D5E90001A2EB0E
:102850004302D2B228230394029600F0C1FB9BF8F6
:102860000F0040F2E13400FB09F2D5E90001D20A81
:1028700009273423CDE900740296CDF80CA000F0AE
:10288000AFFB9BF80F20CDE9007402FB09F0C00AF2
:1028900000EB8003D5E90001A2EB4302D2B2392359
:1028A0000296CDF80CA000F09BFBBBF8080042F2AA
:1028B000C501C0084843020D02FB09F0C00A00EB45
:1028C0008003D5E90001A2EB43021F244FF0140856
:1028D000D2B20B23CDE900840296CDF80CA000F013
:1028E0007FFBBBF8080041F27B4180084843420C63
:1028F0004CF6CD4702FB07F0C00C00EB8003D5E996
:102900000001A2EB430292B21023CDE900840296AB
:10291000CDF80CA000F064FBBBF80800CDE9008402
:102920007843C20C02FB07F0C00C00EB8003D5E932
:102930000001A2EB430292B215230296CDF80CA03F
:1029400000F04EFBBBF80820CDE9008402FB07F045
:10295000C00C00EB8003D5E90001A2EB430292B268
:102960001A230296CDF80CA000F03AFBD5E900013D
:102970000B221F23CDE900840296CDF80CA000F0B5
:102980002FFB9BF80A00242300FB09F2D5E9000184
:10299000D20ACDE90084CDE9026A00F021FB9BF860
:1029A0000A20CDE9008402FB09F0C00A00EB800395
:1029B000D5E90001A2EB4302D2B229230296CDF859
:1029C0000CA000F00DFBD5E900010B222E23CDE970
:1029D00000840296CDF80CA000F002FB9BF80B00DF
:1029E000332300FB09F2D5E90001D20ACDE90084C6
:1029F0000296CDF80CA000F0F3FA9BF80B20CDE97D
:102A0000008402FB09F0C00A00EB8003D5E9000155
:102A1000A2EB4302D2B238230296CDF80CA000F00C
:102A2000DFFA212600201E213F223F230096CDF809
:102A300004A000F03FFF9BF810204CF6CD4740F279
:102A4000F8040A2ACCF6CC47C2F2000411D3A2FB48
:102A50000702D4E900014FF4784C2423D208CDE9D1
:102A6000003C0C230296CDF80CA000F0B9FA9BF8BC
:102A70001020A2FB0701C80800EB8003D4E9000185
:102A8000A2EB43024FF4784824271423CDE90078C1
:102A90000296CDF80CA000F0A3FAD4E900010A22B6
:102AA0001C23CDE900780296CDF80CA000F098FA2E
:102AB0009BF81100242300FB09F2D4E90001D20A9B
:102AC000CDE900780296CDF80CA000F089FA9BF8C9
:102AD0001120CDE9007802FB09F0C00A00EB800369
:102AE000D4E90001A2EB4302D2B22C230296CDF826
:102AF0000CA000F075FADBF8040028B34CF6CD48C2
:102B0000CCF6CC484FF6E137A0FB080207F11E03D4
:102B1000D5E900019BB234244FF0010C2126CDE908
:102B20000043C2F3CF0228230296CDF80CC000F078
:102B300057FADBF80400A0FB0812D10801EB810171
:102B4000A0EB410613E000BF4FF6E13707F11E028C
:102B5000D5E900010123212492B23426CDE9006297
:102B6000CDE902430B2228230B2600F039FAD5E9E0
:102B7000000107F11E024FF0010897B23424B2B2EF
:102B80002D234FF021098DE89002CDF80C8000F044
:102B900027FAD5E900010C2232238DE89002CDF806
:102BA0000C8000F01DFAD5E900010D2237238DE8D5
:102BB0009002CDF80C8000F013FA9BF80000013869
:102BC000C0B203280FD809A10CA251F8201052F866
:102BD000202008681168002714223423CDF80080D3
:102BE000019700F097FB05B0BDE8F08F18010020B9
:102BF0000801002000010020100100201C0100201D
:102C00000C010020040100201401002040F2B45007
:102C1000C2F200000830704740F2B452C2F2000223
:102C2000107451747047000040F2B451C2F20001B8
:102C30004860704710B5DDE902EC40F2B454C2F2CE
:102C400000042081A172E272637384F80EE084F8BC
:102C50000FC010BD2DE9F04F87B001380B2800F2EE
:102C600047810C461546DFE810F00D004301430193
:102C70004301430143014301430143012300D900C0
:102C8000370100BF002000F09BFE0DF11706304613
:102C900021462A46FDF78AFA3046FDF7B5FA40F29A
:102CA0004051C2F20001087207B0BDE8F08F00BFCA
:102CB000A0782378A0F130014EF20040C5F20B401D
:102CC000A1FB0002CDE901206078A3F13005A0F15D
:102CD00030074EF60000C4F67600A7FB00BA41F2BA
:102CE0000000CDF2A540A5FB00ECE67A207A4AF67A
:102CF0000052CFF6F87242F2107800FB082006EB83
:102D000086024FF62066CFF6FF7606EB4202A67AE1
:102D100094F80C804FF0640906FB09F618EB0208E2
:102D20004FEAE272A6F5965642F1000218EB060849
:102D300042EBE672667A4FF47A7373434BF6803651
:102D40009B1B18EB030642EBE372331842EBE07077
:102D5000E27940F6354672434CF20026CFF6B6765D
:102D600006EB42129B1840EBE270A27943F609563B
:102D7000724349F20046CFF6235606EB821266797B
:102D80009B1840EBE270A6F1300249F28068267988
:102D9000C0F29808C2FB0830A6F13002E4784EF287
:102DA0000016C0F2F556C2FB0630A4F130024CF614
:102DB0000024C3F69A34C2FB0430019A4EF2004458
:102DC00002EB4102C917C5F20B4401FB0421172293
:102DD00007FB02A24EF60006FC17C4F6760604FBBB
:102DE0000622029C41F200071B19484113EB0B011C
:102DF0005041E82205FB02C2EB17CDF2A54703FBC9
:102E0000072211EB0E014241B1F12F0062F10001E6
:102E100007B0BDE8F04F01F041B800BF20462C21BB
:102E2000FDF7E8F9002863D0071B0DF112080646EC
:102E3000C7F1050108EB0700042F88BF0021FDF74B
:102E4000CEF9404621463A46FDF7B0F94046FDF737
:102E5000DBF940F2405AC2F2000A06F10109CAF851
:102E6000200048462C21FDF7C5F9002840D0A0EBF2
:102E700009060746C6F1050108EB0600042E88BFC7
:102E80000021FDF7ACF9404649463246FDF78EF980
:102E90004046FDF7B9F90646CAF82400281BC419B4
:102EA000C4F1050108EB040007F10109042C88BFF7
:102EB0000021FDF794F9404649462246FDF776F990
:102EC0004046FDF7A1F90146CAF828003046FFF751
:102ED000A3FE07B0BDE8F08F0DF10D063046214688
:102EE0002A46FDF763F93046FDF78EF9FFF79CFEA1
:102EF00007B0BDE8F08F00002DE9F04381B044F247
:102F00006069C2F2000940F21005B9F80010C2F27F
:102F1000000568880131B1FBF0F22B7802FB10113B
:102F2000A9F80010E3B346F267680026C6F26668A7
:102F300005EB46073A8B89B2114480B2B1FBF0F23F
:102F400002FB101414B1F9891BE000BFFDF71CF956
:102F500080FB0812110901EBD27101EB8101A0EB9A
:102F6000C1000C30B880FDF70FF980FB0812111179
:102F700001EBD27101EB8101A0EBC10000F10C016A
:102F8000F981B8887A8C89B2A3B2FFF741FB28781F
:102F90000136864204D2B9F800106888C8E700BF3D
:102FA00001B0BDE8F083000044F2C850C2F2000056
:102FB000012101707047000080B540F2C85042F214
:102FC000C851C2F20000C2F200014FF40052FDF7F6
:102FD000EDF844F2C850C2F200000021017080BD3B
:102FE0002DE9F04F93B00B9344F2C853C2F20003A3
:102FF0001B7842F2C85C40F2C857C2F2000C002BAA
:10300000C0F30723C2F2000708BFBC46002B05939C
:103010000E9100F07B81C5B2002D00F077811F9CDE
:10302000DDF87090022C05FB02F10D9180F0848098
:1030300000F003001190A5EB000B0E986A1E0144EE
:103040000B984B1C00EB89110CEB41074FF0000A69
:10305000129207E005980AF1010A824507F18007FC
:1030600000F054811298002503284FF0010000FA67
:103070000AF403D2DDF8749026E000BFDDE91D9864
:103080006FF00701581910F8016C7A1834424E4657
:1030900008BF464616815E5D07EB450E34424E463C
:1030A00008BF4646AEF802604678043534424E46C4
:1030B00008BF46469681807808310442484608BFDA
:1030C0004046AB45D081DDD1DDF84480DDF834E009
:1030D000B8F1000FBED00E9A1C9805EB0E01525CA1
:1030E0000B99504401EB8011144248461E9A08BFC8
:1030F00010464A19B8F1010F2CF81200AAD0681C2A
:103100000E9E00EB0E02B25C1E9E14424A4608BFA1
:1031100032460844B8F1020F2CF810209AD0A81CAF
:103120000E9E00EB0E02B25C084414421E9E08BFC5
:10313000B1462CF810908DE704F00101099104F0DC
:10314000FE010B9B079104F0FC01C1F1000803EBA9
:1031500089110CEB4101E601A1F1020E0196660016
:1031600001F17E0B0CEB4301601E04F0030708968F
:103170000239002673460091CDF818900A950EE0AA
:10318000049B0199DDF80CB0029E0B448B44059919
:1031900001368E4206992144069100F0B7801C99B1
:1031A000009A06FB041901210296B14000260C91F9
:1031B000CDE903B312930BE0089B1299119E1944B9
:1031C00012910A9901361F9C9B448E421A44D7D013
:1031D0000D990E9B3144595C0C9B4FF0000A0B4239
:1031E000DDE91D5108BF0D460B99002806FB0414AC
:1031F0001196CDE90FB257D0129E079A08E000BF92
:103200000AF1020A06F5807692450BF5807B4BD0D9
:10321000032803D20021A7B922E000BF4FF0000E1F
:10322000314600BFAEF1040E21F8085FF04521F8E9
:10323000065C21F8045C21F8025CF3D1CEF10001B8
:1032400077B109EB0A0304EB83131944012F2CF81F
:10325000115005D00CEB4101022F4D8018BF8D801D
:10326000002103280CD35B46043923F8085F884506
:1032700023F8065C23F8045C23F8025CF4D149428D
:10328000002FBDD04AF001034B4404EB83131944D3
:10329000012F2CF81150B3D00CEB4101022F4D80BF
:1032A00018BF8D80ACE700BF0999DDE90FB2002996
:1032B0003FF482AF032803D20021B7B97CE700BFF7
:1032C00006990026514402EBC11100BF043E21F8CB
:1032D000085FB04521F8065C21F8045C21F8025C27
:1032E000F4D17142002F3FF467AF09EB0A0304EBFE
:1032F00083131944012F2CF811503FF45DAF0CEBF0
:103300004101022F4D8018BF8D8055E713B0BDE8F5
:10331000F08F00002DE9F04F88B0CDE9043244F27F
:10332000C852C2F20002177842F2C85340F2C852A3
:10333000C2F20003C2F20002002F08BF1346069338
:10334000C0F3072313B3C5B205B3119A070A6E1E63
:10335000002A07F0010207960290CDE9002519D056
:10336000129E012B2AD14FF0000A00980028DDE9B7
:1033700001300BD0049A079F5244032F00F0030042
:1033800080F09A810023002840F0BC8108B0BDE89D
:10339000F08F00BF012B40F0E9804FF0000B009848
:1033A0000028DDE90130F1D0049A079F5A44032F29
:1033B00000F0030080F0C6810023DEE19A1A039238
:1033C00000F0030BDDE90420A5EB0B0400EB8210F9
:1033D000069AABEB050502EB400808F1040E4FF02E
:1033E000000A0AE009F1060103980AF1020A0EF543
:1033F000807E824508F58078B7D00798032805D2EB
:103400004FF0000CBBF1000F20D14DE000207246C0
:103410000F880438B74218BF22F8047C4F88B7429F
:1034200018BF22F8027C8F88B74218BF1780CF8858
:103430000831B74218BF5780854202F10802E7D130
:10344000C0F1000C8946BBF1000F2DD0049A08880A
:10345000059B5244B04203EB821204D0069F02EB5C
:103460000C0327F81300BBF1010F01F102091BD077
:10347000B9F80000B04205D00CF10103069F1344D7
:1034800027F81300BBF1020F01F104090CD0B9F8C1
:103490000000B04205D00CF102031A44069B23F849
:1034A000120001F1060900BF0798032804D200208A
:1034B000BBF1000F2CD197E700204A4639F8107075
:1034C0001146B7421CBF08EB4002A2F8807009EB1E
:1034D00040025788B7421CBF08EB4003A3F8827034
:1034E0009788B7421CBF08EB4003A3F88470D788C5
:1034F0000832B7421CBF08EB4003A3F886700430C3
:103500008442DBD108318946BBF1000F3FF46CAF38
:10351000049B4AF00102B9F800101A44059BB1421D
:1035200003EB821203D0069F131827F81310BBF188
:10353000010F09F102013FF457AF0988B14204D0ED
:10354000431C069F134427F81310BBF1020F09F127
:1035500004013FF449AF0988B1423FF443AF023060
:103560001044069A22F810103CE700BFA3EB020EAD
:1035700000F00308DDE90420A5EB080C00EB821045
:10358000069AA8EB050A02EB4005A5F108094FF0E1
:10359000000B0CE082888A80811D00BF0BF1020BBA
:1035A00009F58079F34505F580753FF4F8AE079885
:1035B000032805D20022B8F1000F18D130E000BF77
:1035C000A1F1080000214A4630F8087F043922F8AA
:1035D000087F47888A45578087889780C788D78023
:1035E000F2D108304A420146B8F1000F18D00498D1
:1035F000059B584403EB8017084630F8023B069CB5
:103600003A44B8F1010F24F8123009D006984B88DB
:1036100000EB4200B8F1020F438009D1081D00BF42
:103620000799002203290BD2B8F1000F27D1B5E783
:103630008A888280881D079900220329F4D300BF5D
:10364000014600BF30F8127005EB420400EB420364
:10365000A4F880705F880432A4F882709F88944533
:10366000A4F88470DE880F4603F10801A4F8866090
:10367000E8D107F108010846B8F1000F8ED0049B8D
:103680004BF001011944059BB8F1010F03EB8113C5
:10369000014631F8024B1A44069B23F812403FF4CE
:1036A0007DAF0699438801EB4201B8F1020F4B80D0
:1036B0007FF470AF011D71E7059D97012F44069DB2
:1036C000C31A05EB47073D1D002700BF0C88043FC8
:1036D000B44218BF25F8044C4C88B44218BF25F8F2
:1036E000024C8C88B44218BF2C80CC880831B4427C
:1036F00018BF6C80BB4205F10805E7D17B4200286A
:103700003FF444AE0F88059DB74205EB821203D00B
:10371000069CD51824F8157001283FF437AE4F8861
:10372000B74204D05D1C069C154424F8157002288D
:103730003FF42CAE8888B0423FF428AE991C114467
:1037400033E000BF059E97013744069EC31A06EB7F
:1037500047070839A7F10806002700BF31F8085FBE
:10376000043F26F8085F4D88BB4275808D88B58080
:10377000CD88F580F2D108317B4200283FF406AEB7
:10378000059F012807EB82120F881A44069B23F835
:1037900012703FF4FBAD069F4B8807EB42070228EF
:1037A0007B803FF4F3AD8888911C069A22F81100C3
:1037B00008B0BDE8F08F00002DE9F047A2EB00084B
:1037C0000FFA88F6A3EB01090FFA89F508EBE63743
:1037D000002E4FF0FF3487EAE63609EBE537C8BF25
:1037E0000124002D87EAE535DDF820C04FF0FF3ECB
:1037F0002DB236B2C8BF4FF0010EAE422CDD23B25F
:1038000003EB020944F2C853C2F200031F7842F2EC
:10381000C85A40F2C858C2F2000A002F07B2C2F2DA
:10382000000808BFC246B94508BFBDE8F0870027B9
:103830008AB283B203EB82123BB25F193B04B6EB50
:10384000E33F3BB22044DCBF71449F1B03B2994568
:103850002AF812C0ECD12AE00FFA8EF202EB03092B
:1038600044F2C853C2F200031F7842F2C85A40F231
:10387000C858C2F2000A002F0FB2C2F2000808BFF7
:10388000C246B94513D000278AB283B203EB821235
:103890003BB29F193B04B5EBE33F3BB27144DCBF45
:1038A00020445F1B0BB299452AF812C0ECD1BDE849
:1038B000F08700002DE9F04782B08A46DDE90A7101
:1038C00099461646002980465AD044F2C850C2F2A2
:1038D0000000017842F2C85040F2C852C2F2000023
:1038E00000290FFA8AF1C2F2000208BF104689458A
:1038F00062DB0FFA88F18E421CDA00BF0AF1010088
:1039000000B2814558DB0AF1020000B2814553DB69
:103910000AF1030000B281454EDB0AF1040A0FFAF6
:103920008AF08145EADA47E00AF1010A0FFA8AF1E2
:10393000894541DB1FFA8AF18901424693B2CC18CE
:10394000531C1DB2AE4220F81470EDDB9BB2CD18B3
:10395000931C1CB2A64220F81570E5DB9BB2CD1873
:10396000D31C1CB2A64220F81570DDDB04329BB2DA
:1039700015B20B44AE4220F81370DFDAD4E700BF73
:1039800040465146324653460097FFF715FF4046E2
:10399000494632464B460097FFF70EFF40465146D8
:1039A00042464B460097FFF707FF304651463246E6
:1039B0004B460097FFF700FF02B0BDE8F08700001C
:1039C00080B544F2C851C2F20001097842F2C85CE5
:1039D00040F2C852C2F2000CC2F20002002908BF35
:1039E00094460CF1400E00230CEB03012CF803006D
:1039F0000EEB03022EF803008033B3F5005F48801E
:103A00008880C880088148818881C881088248826E
:103A10008882C882088348838883C883088448844E
:103A20008884C884088548858885C885088648862E
:103A30008886C88608874887888722F8020CA1F8FC
:103A40004200A1F84400A1F84600A1F84800A1F8FE
:103A50004A00A1F84C00A1F84E00A1F85000A1F8CE
:103A60005200A1F85400A1F85600A1F85800A1F89E
:103A70005A00A1F85C00A1F85E00A1F86000A1F86E
:103A80006200A1F86400A1F86600A1F86800A1F83E
:103A90006A00A1F86C00A1F86E00A1F87000A1F80E
:103AA0007200A1F87400A1F87600A1F87800A1F8DE
:103AB0007A00A1F87C00A1F87E0095D180BD0000BD
:103AC00040F2C850C2F200007047000096B040F2C9
:103AD0004054C2F200040A200225E0602572FCF77F
:103AE000BBFF00260120CDE91166CDE90F660C90E1
:103AF00010904FF4E0104FF4803115900CA805960B
:103B0000CDE90366CDE90D16CDE91351FDF7D8F9DE
:103B100020B1EFF3108072B6FEE700BF0F2006A9B8
:103B200061C14FF48060CDE9090606A80221FDF7C6
:103B3000BFF828B1EFF3108072B600BFFEE700BFF8
:103B4000022002904FF40040049002A8FDF72AF8EA
:103B500020B1EFF3108072B6FEE700BF41F218000B
:103B6000C4F20200016840F2004541F0100101601A
:103B70000168C4F2000501F010010C910C99016874
:103B800041F020010160016801F020010C910C99C5
:103B9000016841F004010160016801F004010C9129
:103BA0000C99016841F00801016000680CA900F05F
:103BB00008000C900C984FF6FB500C900120CDE9BA
:103BC0000D0003200F9005F58430FCF727FE44F22A
:103BD000D050002105F59432C2F200001D23632766
:103BE00080260F91CDE90D11CDE90211C0E9002326
:103BF000C0E90217C0E904118661FDF793FB28B103
:103C0000EFF3108072B600BFFEE700BF4FF48050A4
:103C10000C9044F2D050C2F200000CA9FDF7BAFC9F
:103C200020B1EFF3108072B6FEE700BF44F2D0502F
:103C3000C2F20000FDF730FE20B1EFF3108072B643
:103C4000FEE700BF44F2D050C2F2000002A9FDF727
:103C50002BFB28B1EFF3108072B600BFFEE700BF68
:103C600000260120CDE9070644F2D050C2F2000040
:103C700006A9002206960996FDF758FD20B1EFF33C
:103C8000108072B6FEE700BF44F21860C2F2000076
:103C900041F61F416322C0E9005180210F96CDE912
:103CA0000D66CDE90666C0E9026206618161FDF735
:103CB00039FB28B1EFF3108072B600BFFEE700BFFA
:103CC0004FF480500C9044F21860C2F200000CA92E
:103CD000FDF760FC20B1EFF3108072B6FEE700BF85
:103CE00044F21860C2F2000006A9FDF7DDFA18B12F
:103CF000EFF3108072B6FEE705F59A31204640F8E2
:103D0000301F4FF4E13100220C23C0E90112C0E959
:103D10000322C0E90532C261FEF730F820B1EFF3AB
:103D2000108072B6FEE700BF44F2D050C2F200002D
:103D3000FDF7DAFB44F21860C2F20000FDF7D4FB95
:103D400004F13005284621460122FEF703F948F622
:103D50006760C8F6471040F2831100F09FF8FFF744
:103D6000AFFE44F2CC51C2F2000108600020FFF720
:103D700027FE2D26172740F2E6700A21012208238C
:103D800000970196FEF756FF09200621FEF744FF33
:103D90001A20FEF749FFFEF7F7FC43F6D870C0F68D
:103DA0000000D0E90012C3688068CDE90C12CDE9AB
:103DB0000E0343F6E870C0F60000D0E90012C368B5
:103DC0008068CDE90612CDE9080341F28830FCF79E
:103DD00011FD26A128461322FEF734F940F2E670C1
:103DE0000A210A22142300970196FEF723FFFEF70B
:103DF000CBFC47F2004A0DF13008C0F2B71A0DF1C2
:103E0000180902E00A20FCF7F5FC207A012811D0FD
:103E10000228F7D14846FEF791FC0028F2D0FFF7C0
:103E2000C3F80020FFF7CCFDFFF766F8FFF7C4F8F2
:103E3000E8E700BF4046FEF781FC0028E2D000F032
:103E40001FF810EB0A0741F10005FEF7DFFE0646FA
:103E5000384629464FF47A720023FCF763F901468D
:103E60003046FEF76BFAFEF78FFCCBE75B46535DFF
:103E700020496E69742066696E6973680D0A0000D6
:103E800044F2686044F27062C2F20000C2F20002C2
:103E900003C80CCA801859417047000044F2686298
:103EA000C2F200020CCA801A44F270629941C2F256
:103EB0000002C2E9000170472DE9F04F03AF81B065
:103EC00088463A210546FCF795F9C8B1401BC6B2B1
:103ED000F01D20F00700ADEB0004E946A5462046A2
:103EE00029463246FCF762F92046FCF78DF9F24389
:103EF000A9194244013192B2C0B2FEF7ABFECD46E1
:103F0000A7F10C04A546BDE8F08F000000487047FB
:103F10000400002002E008C8121F08C1002AFAD1DC
:103F200070477047002001E001C1121F002AFBD139
:103F30007047004040404040404040404141414186
:103F40004140404040404040404040404040404070
:103F50004040400502020202020202020202020284
:103F60000202022020202020202020202002020205
:103F70000202020290909090909010101010101079
:103F8000101010101010101010101010101002024D
:103F900002020202888888888888080808080808B9
:103FA000080808080808080808080808080802029D
:103FB00002024000333F0008010200000000000040
:103FC00000000102030406070809000000000102C6
:103FD00003040000000000000100000000000000D9
:103FE00000000000000000000800000000000000C9
:103FF0000000000000000000020304050607080995
:104000000A0B0C0D0E0F10102840000800000020B5
:1040100040050000A2060008B0410008400500204D
:1040200040490000243F000881320132101205127D
:104030000C120F12241220122A1232121F3A0D08EB
:104040003217120212061203120A100FFFFBFF0BA7
:10405000E1FB21F8E10B3E41413E181D427F4061EA
:10406000514946414949360F08087F4F4949313E79
:1040700049493001710D0336141D0649493E4F214F
:10408000130808140705071934180922127B364152
:104090003F417F131901130C081B4042011362407A
:1040A0001A40451449614010087F514F414F497FE4
:1040B00010084049794F497940180842221A031ADA
:1040C000224230163F484444641440300F1B0F30E6
:1040D0001817320F027E40601D0404047F04111083
:1040E00008047F4444447F041008243B2A7E2A2A83
:1040F00022200840201F1515557F1A7F581950118E
:104100001324F4230407223C1A208F111A74081A6E
:104110000E1013200124200F0C1AE40823090913A0
:104120004C0324200D0D1AEE08A119F859020110B4
:10413000891AA91CA916096002091A700922C40962
:1041400016C6091C5809369209201E0924D0011AE6
:104150000D12FF03FF030609401E09217C99A26985
:10416000EC690AE9D88926091AFA091024091248C3
:1041700009106C091090A10318E0F309101A3CE033
:10418000F3E044491A8BE0FB22290CB902996CC96F
:104190001AD950F91AD948091D20091E4E091C9C2C
:1041A0000918D089220118C91A0000000000000077
:04000005080000ED02
:00000001FF
